:100000000C9466000C948E000C948E000C948E0060
:100010000C948E000C948E000C948E000C948E0028
:100020000C948E000C94A9010C948E000C948E00FC
:100030000C948E000C948E000C948E000C948E0008
:100040000C94D2080C948E000C948C050C94D3055F
:100050000C948E000C948E000C948E000C948E00E8
:100060000C948E000C948E000000000024002700E9
:100070002A0000000000250028002B0000000000DE
:1000800023002600290004040404040404040202DA
:100090000202020203030303030301020408102007
:1000A0004080010204081020010204081020000012
:1000B0000007000201000003040600000000000029
:1000C00000002401D301C40212071D0111241FBE28
:1000D000CFEFD8E0DEBFCDBF11E0A0E0B1E0E4EFAC
:1000E000F7E102C005900D92AE39B107D9F712E0E1
:1000F000AEE9B1E001C01D92A639B107E1F710E009
:10010000CAECD0E004C02297FE010E94E90BC23C79
:10011000D107C9F70E94B9080C94ED0B0C940000AC
:1001200082E090E0089582E090E00895DC0112966C
:10013000ED91FC911397440F551F460F571F440F25
:10014000551FE40FF51F808191810895660F771F79
:10015000660F771FFC0122813381260F371FC901EB
:100160000895660F771F660F771FFC012281338188
:10017000260F371FC9010895FC018EE691E0918397
:100180008083CF010E94AB0208950F931F938130AB
:100190009105B9F56F5F7F4F09F04CC08EE991E092
:1001A00062E070E044E551E00E94780584EA91E065
:1001B00062E070E048E551E00E9478058AEA91E04B
:1001C00064EA71E04EE951E000E010E220E030E046
:1001D0000E949A038EE691E09093C7018093C60136
:1001E0002CE531E03093C9012093C8019093CB01F5
:1001F0008093CA018EEC91E09093CD018093CC0165
:1002000019C0892BB9F46F5F7F4FA1F48AEC91E09C
:100210000E94BC0086EC91E00E94BC008AEA91E05A
:100220000E94800384EA91E00E9456058EE991E0E5
:100230000E9456051F910F91089580E090E06FEFA6
:100240007FEF0E94C500089581E090E06FEF7FEF9F
:100250000E94C50008950F931F938C018EE691E0D4
:10026000F80191838083C8010E94AB02C8010E94FB
:10027000CC081F910F9108950E941A09AB01BC018F
:100280008AEA91E00E94C90208950F931F9383EEBA
:1002900091E061E070E020E032EC41E050E00E944B
:1002A000A1020AEA11E0C8010E946F03C80166ECCE
:1002B00071E00E94C0021F910F9108958091DC01AE
:1002C0009091DD01A091DE01B091DF010196A11DA9
:1002D000B11D8093DC019093DD01A093DE01B0930A
:1002E000DF018091DC019091DD01A091DE01B091F0
:1002F000DF012091D6013091D7014091D801509172
:10030000D90182179307A407B50710F18091E00186
:100310008823F1F481E08093E0018091DC019091E9
:10032000DD01A091DE01B091DF01821B930BA40BD4
:10033000B50B8093DC019093DD01A093DE01B093B7
:10034000DF01E091DA01F091DB0109951092E00103
:1003500008951F920F920FB60F9211242F933F937F
:100360004F935F936F937F938F939F93AF93BF93BD
:10037000EF93FF938091E1019091E2018093B200AD
:100380000E945E01FF91EF91BF91AF919F918F917C
:100390007F916F915F914F913F912F910F900FBE81
:1003A0000F901F9018951092E4011092E3010895A8
:1003B000EF92FF920F931F93CF93DF937B01EA019C
:1003C00087EE91E00E941007882309F098C09CC036
:1003D000853209F08BC00894E11CF11CF701808183
:1003E000882309F491C0853221F487EE91E065E21B
:1003F00081C0833741F48E010E5F1F4F6881798180
:1004000087EE91E057C08436E1F18936D1F1883723
:1004100041F0883581F487EE91E060E071E00E9460
:100420006D088E010E5F1F4F6881798187EE91E024
:1004300040E150E02FC0823641F0823481F487EEF3
:1004400091E063E071E00E946D088E010E5F1F4F26
:100450006881798187EE91E042E050E01BC08C36E4
:1004600071F48E010C5F1F4F488159816A817B8135
:1004700087EE91E02AE030E00E941A081DC0833622
:1004800061F48E010E5F1F4F6881798187EE91E0E4
:100490004AE050E00E945A080FC08437A1F48E0150
:1004A0000E5F1F4F88819981019741F487EE91E09B
:1004B00066E071E00E946D08E8011EC087EE91E0E1
:1004C00068E071E0F7CF843589F48E010E5F1F4F2D
:1004D00088819981019729F487EE91E06AE071E0C3
:1004E000E9CF87EE91E06FE071E0E4CF87EE91E035
:1004F000F70160810E9492070894E11CF11CF7014A
:100500008081882309F064CFDF91CF911F910F91F3
:10051000FF90EF900895DF93CF93CDB7DEB7ED81D5
:10052000FE818081918102974CF09E01275F3F4FB1
:10053000CF016F817885A9010E94D801CF91DF9109
:100540000895FC017183608387EE91E0BA01A901EF
:100550000E9403060895FC0180E891E09183808366
:100560000895FC0180E891E0918380830895FC0167
:1005700080E891E091838083CF010E94CC080895A8
:10058000FC01738F628F08951092E6011092E501CD
:1005900008956F927F928F929F92AF92BF92CF9267
:1005A000DF92EF92FF920F931F93CF93DF933C0163
:1005B000DC01ED90FD900D911C91CB01BA01A801D9
:1005C00097010E94AA0BD62EC72EB82EA92E4EE058
:1005D000842E912C860C971CC4010E94E8049C0177
:1005E000442737FD4095542FC801B7010E94AA0B3C
:1005F0006D2D7C2D8B2D9A2D0E94AA0B7901F30174
:1006000022853385448555856D2D7C2D8B2D9A2D26
:100610000E94AA0B5B016C01C0E0D0E00CC040E07E
:1006200050E0CE15DF0511F441E050E0C401BE01F9
:100630000E94EC042196C4010E94E804C817D9075F
:1006400074F383010C5E1F4FC0E0D0E033C0F301B0
:10065000A28DB38DED91FC9111970484F585E02D69
:10066000CD01B7010995FE01EE0FFF1FE80FF91F3D
:1006700080819181880F991F880F991FD30114964B
:10068000ED91FC911597E80FF91F80819181A2816E
:10069000B381A816B906CA06DB0628F4C801BE0154
:1006A00041E050E004C0C801BE0140E050E00E94BB
:1006B000EC042196C8010E94E804C817D9073CF24F
:1006C000DF91CF911F910F91FF90EF90DF90CF902E
:1006D000BF90AF909F908F907F906F9008950F93F1
:1006E0001F938C010E9660E070E00E941B05C8010C
:1006F000449660E070E00E941B051F910F910895E1
:10070000CF93DF93EC018E819F81009711F00E94BF
:10071000C90888859985009711F00E94C908CE0103
:1007200044960E945605CE010E960E945605DF9112
:10073000CF9108952F923F924F925F926F927F9246
:100740008F929F92AF92BF92CF92DF92EF92FF92E1
:100750000F931F93DF93CF9300D000D0CDB7DEB7B8
:100760009C838B836B015A0178018901CB010E9424
:10077000E804AA2797FDA095BA2FBC01CD01A801D6
:1007800097010E948B0BAB81BC816D937D938D9300
:100790009C931397FD01E286F386048715873E96A6
:1007A000FA83E983CF01B6010E945E058B819C81AB
:1007B0004496B5010E945E05AB81BC815B961C929C
:1007C0001E925A978CEF97E00E94CF08EB81FC8134
:1007D0009583848322243324442455243201AB811D
:1007E000BC8114968D909C901597820C931C00D020
:1007F00000D01A968D919D910D90BC91A02DEDB7D2
:10080000FEB781839283A383B483C301B20120E046
:1008100030E040E050E0EEEFEE2EE1E0FE2E012D64
:10082000112DAA24BB2465010E947008D4016D9388
:100830007D938D939C931397E4E0F0E02E0E3F1E82
:100840000894411C511C611C711C0F900F900F905B
:100850000F90FCEF2F16F7E03F0609F689819A8189
:100860000E94E804880F991F880F991F0E94CF08E3
:10087000AB81BC8117969C938E93169789819A8140
:100880000E94E804880F991F880F991F0E94CF08C3
:100890009C01EB81FC8191878087DF010680F781D5
:1008A000E02D1082118212821382FD0182859385D0
:1008B000A485B585F90180839183A283B38351E038
:1008C000E52EF12C00E010E02CC0AB81BC81169627
:1008D0002D913C911797200F311F1896ED91FC91A7
:1008E0001997E00FF11FD290C290B290A290349667
:1008F000D901AD92BD92CD92DC921397AB81BC81B0
:100900001A962D913D914D915C911D97A20EB31EAB
:10091000C41ED51EA082B182C282D3820894E11C7B
:10092000F11C89819A810E94E8040C5F1F4FE81630
:10093000F9065CF2EB81FC8122853385448555857F
:100940002030F2E03F07F0E04F07F0E05F0748F5A6
:100950008DB79EB70A970FB6F8949EBF0FBE8DBF96
:10096000EDB7FEB7319685EE91E0ADB7BEB7129602
:100970009C938E9311978DE191E0938382832483DE
:100980003583468357838FEF91E0918780870E945C
:100990008B02EDB7FEB73A960FB6F894FEBF0FBEC6
:1009A000EDBF0F900F900F900F90CF91DF911F919F
:1009B0000F91FF90EF90DF90CF90BF90AF909F90FE
:1009C0008F907F906F905F904F903F902F90089501
:1009D000FC01848195810895EF92FF920F931F93FC
:1009E000CF93DF938C01EB017A01CC0FDD1FDC018B
:1009F0001296ED91FC911397EC0FFD1F8081918170
:100A0000E816F90689F0ED91FC91EC0FFD1F80814D
:100A10006E2D0E94020AD8011296ED91FC91139757
:100A2000EC0FFD1FF182E082DF91CF911F910F91BA
:100A3000FF90EF900895CF92DF92EF92FF920F9385
:100A40001F93CF93DF937C016B01C0E0D0E01FC008
:100A50008E01000F111FD701ED91FC91E00FF11FE6
:100A6000808161E00E94C309D701ED91FC91E00F04
:100A7000F11F8081B6010E946309D7011296ED91A2
:100A8000FC911397E00FF11FD182C0822196F701EC
:100A900084819581C817D907DCF2DF91CF911F912E
:100AA0000F91FF90EF90DF90CF900895FC0182812D
:100AB0009381009711F00E94C90808950F931F9326
:100AC0008C01FB0180819181D80111969C938E93BA
:100AD0008481958115969C938E931497880F991F06
:100AE0000E94CF08F801938382831F910F9108958C
:100AF0000F931F938C01CB01F801518340837583C1
:100B00006483880F991F0E94CF08F8019383828322
:100B10001F910F91089508951F920F920FB60F9293
:100B200011242F933F934F938F939F93EF93FF93B2
:100B30008091C00082FD19C04091C60080910502DD
:100B4000282F30E02F5F3F4F2F73307080910602C7
:100B500090E02817390759F0E0910502F0E0E951DB
:100B6000FE4F42A32093050202C08091C600FF9170
:100B7000EF919F918F914F913F912F910F900FBEC9
:100B80000F901F901895809105022091060290E029
:100B9000805C9F4F821B91098F739070892B11F09D
:100BA0000E948B0508951F920F920FB60F92112489
:100BB0002F938F939F93EF93FF93909107028091D0
:100BC0000802981731F48091C1008F7D8093C10095
:100BD00010C0E0910802F0E0E75BFD4F20818091BA
:100BE000080290E001968F73907080930802209322
:100BF000C600FF91EF919F918F912F910F900FBEA3
:100C00000F901F901895AF92BF92DF92EF92FF92D4
:100C10000F931F93CF93DF93EC017A018B01DD24B7
:100C2000403081EE580780E0680780E0780711F0D7
:100C3000DD24D39491E0A92EB12CE889F989DD2037
:100C400069F0C5010C8C02C0880F991F0A94E2F765
:100C5000808360E079E08DE390E005C0108260E879
:100C600074E88EE190E0A80197010E94AA0B215040
:100C7000304040405040569547953795279580E144
:100C80002030380720F0DD2011F0DD24D6CFEC85B0
:100C9000FD853083EE85FF8520831D8EEA89FB89E3
:100CA000408121E030E0C901088C02C0880F991F03
:100CB0000A94E2F7482B4083EA89FB894081C90105
:100CC000098C02C0880F991F0A94E2F7482B4083D1
:100CD000EA89FB894081C9010A8C02C0880F991FEB
:100CE0000A94E2F7482B4083EA89FB8980810B8CC8
:100CF00002C0220F331F0A94E2F720952823208395
:100D0000DF91CF911F910F91FF90EF90DF90BF90F7
:100D1000AF900895FC01268D878D30E0205C3F4F19
:100D2000281B31092F733070C9010895FC01968D7D
:100D3000878D981719F42FEF3FEF06C0878DE80FC6
:100D4000F11D82A1282F30E0C9010895DC015E96D3
:100D50009C915E975F968C915F97981719F42FEF8F
:100D60003FEF10C05F968C915F97FD01E80FF11D7A
:100D700092A15F968C915F978F5F8F735F968C9334
:100D8000292F30E0C9010895DC015D968C915D97B3
:100D9000882339F05096ED91FC915197808186FF20
:100DA000F9CF5D961C920895DC0190968C919097F6
:100DB000282F30E02F5F3F4F2F73307091968C912A
:100DC000919790E028173907C9F390968C919097E6
:100DD000FD01E80FF11DEE59FF4F608390962C93B3
:100DE00090975296ED91FC915397208181E090E08D
:100DF0005B960C905B9702C0880F991F0A94E2F7EC
:100E0000282B208381E05D968C935D975096ED9121
:100E1000FC91519780818064808381E090E0089507
:100E200081E008951092EA011092E90188EE93E0C2
:100E3000A0E0B0E08093EB019093EC01A093ED0172
:100E4000B093EE0182E991E09093E8018093E7018D
:100E50001092080280910802809307021092060205
:100E6000809106028093050285EC90E09093F40156
:100E70008093F30184EC90E09093F6018093F50168
:100E800080EC90E09093F8018093F70181EC90E082
:100E90009093FA018093F90182EC90E09093FC0129
:100EA0008093FB0186EC90E09093FE018093FD011E
:100EB00084E08093FF0183E08093000287E08093C9
:100EC000010285E08093020281E08093030208958D
:100ED000CF92DF92EF92FF920F931F93CF93DF9306
:100EE0007C016B018A01C0E0D0E00FC0D6016D919A
:100EF0006D01D701ED91FC910190F081E02DC701CA
:100F00000995C80FD91F015010400115110571F73F
:100F1000CE01DF91CF911F910F91FF90EF90DF9065
:100F2000CF900895DC01ED91FC910190F081E02DCE
:100F300009950895CF93DF93EC016115710519F4BC
:100F400020E030E00FC0DB010D900020E9F71197A1
:100F5000A61BB70BE881F9810280F381E02DAD017A
:100F600009959C01C901DF91CF9108954F925F923D
:100F70007F928F929F92AF92BF92CF92DF92EF9229
:100F8000FF920F931F93DF93CF93CDB7DEB7A19757
:100F90000FB6F894DEBF0FBECDBF2C01742ECB016F
:100FA000223008F42AE019A231E2C32ED12CCC0E53
:100FB000DD1E822E9924AA24BB24672D752FA5013E
:100FC00094010E94AA0B79018A01C801B701A50109
:100FD00094010E948B0B472D461B0894C108D10831
:100FE0004A3014F4405D01C0495CF6014083E114CD
:100FF000F1040105110521F07E2C5F2DC801DDCF24
:10100000C201B6010E949A07A1960FB6F894DEBFFE
:101010000FBECDBFCF91DF911F910F91FF90EF9049
:10102000DF90CF90BF90AF909F908F907F905F9018
:101030004F900895CF92DF92EF92FF920F931F93FC
:10104000CF93DF93EC016A017B012115310541F457
:10105000E881F9810190F081E02D642F09951FC08E
:101060002A303105D1F477FF17C0E881F98101906A
:10107000F081E02D6DE209958C0144275527BA01D6
:101080004C195D096E097F09CE012AE00E94B6075E
:101090009801280F391F04C02AE00E94B6079C015E
:1010A000C901DF91CF911F910F91FF90EF90DF90D9
:1010B000CF900895EF92FF920F931F937B019A01B7
:1010C0000027F7FC0095102FB801A7010E941A080D
:1010D0001F910F91FF90EF9008950E949A07089535
:1010E0002F923F924F925F926F927F928F929F9238
:1010F000AF92BF92CF92DF92EF92FF920F931F9326
:10110000DF93CF93CDB7DEB73B014C0119012A0124
:101110006D897E898F89988D6A197B098C099D0953
:10112000621A730A840A950AA40193010E948B0B28
:10113000E218F30804091509A80197010E94CC0BD5
:101140002A0D3B1D4C1D5D1DB901CA01CF91DF91D8
:101150001F910F91FF90EF90DF90CF90BF90AF90D5
:101160009F908F907F906F905F904F903F902F90C7
:101170000895CF93DF930E9428090E944501C3EC94
:10118000D5E00E943C012097E1F30E94C305F9CF0E
:1011900008950E94F30A08950E94F30A08950E9498
:1011A000560A08951F920F920FB60F9211242F9393
:1011B0003F938F939F93AF93BF9380918D029091B4
:1011C0008E02A0918F02B09190023091910201960F
:1011D000A11DB11D232F2D5F2D3720F02D57019616
:1011E000A11DB11D2093910280938D0290938E02D8
:1011F000A0938F02B09390028091890290918A020D
:10120000A0918B02B0918C020196A11DB11D80931B
:10121000890290938A02A0938B02B0938C02BF91B3
:10122000AF919F918F913F912F910F900FBE0F9093
:101230001F9018958FB7F89420918D0230918E02EF
:1012400040918F02509190028FBFB901CA01089559
:10125000789484B5826084BD84B5816084BD85B591
:10126000826085BD85B5816085BDEEE6F0E0808158
:1012700081608083E1E8F0E0108280818260808379
:10128000808181608083E0E8F0E0808181608083FC
:10129000E1EBF0E0808184608083E0EBF0E080812E
:1012A00081608083EAE7F0E08081846080838081D0
:1012B0008260808380818160808380818068808378
:1012C0001092C10008951F93CF93DF93182FEB0165
:1012D00061E00E94C309209709F44AC0CF3FD105BD
:1012E00009F449C0E12FF0E0E255FF4F84918330CB
:1012F000C1F0843028F4813051F08230B1F50CC057
:10130000863019F1873049F1843079F514C084B5FD
:10131000806884BDC7BD33C084B5806284BDC8BD4C
:101320002EC080918000806880938000D0938900D7
:10133000C093880024C080918000806280938000E8
:10134000D0938B00C0938A001AC08091B00080684F
:101350008093B000C093B30012C08091B00080624F
:101360008093B000C093B4000AC0C038D1051CF40B
:10137000812F60E002C0812F61E00E94020ADF91AC
:10138000CF911F910895CF93DF93482F50E0CA016A
:1013900086569F4FFC0134914A575F4FFA01849162
:1013A000882369F190E0880F991FFC01E859FF4FED
:1013B000A591B491FC01EE58FF4FC591D4916623DD
:1013C00051F42FB7F8948C91932F909589238C9397
:1013D000888189230BC0623061F42FB7F8948C9117
:1013E000932F909589238C938881832B88832FBF9B
:1013F00006C09FB7F8948C91832B8C939FBFDF918D
:10140000CF910895482F50E0CA0182559F4FFC01AB
:101410002491CA0186569F4FFC0194914A575F4F11
:10142000FA013491332309F440C0222351F12330CF
:1014300071F0243028F42130A1F0223011F514C0CD
:101440002630B1F02730C1F02430D9F404C08091A7
:1014500080008F7703C0809180008F7D8093800013
:1014600010C084B58F7702C084B58F7D84BD09C05C
:101470008091B0008F7703C08091B0008F7D809302
:10148000B000E32FF0E0EE0FFF1FEE58FF4FA591E5
:10149000B4912FB7F894662321F48C919095892309
:1014A00002C08C91892B8C932FBF08950F931F93AB
:1014B000CF93DF93BC018230910510F462E070E0BD
:1014C000E0919402F0919502A0E0B0E040E050E09D
:1014D00024C08081918186179707D0F086179707DF
:1014E00071F482819381109729F013969C938E93C7
:1014F00012972CC0909395028093940227C04115B7
:10150000510519F08417950718F4EF018D01AC010E
:10151000DF01828193819C01F9013097D1F6411559
:101520005105F9F0CA01861B970B8430910580F4B0
:101530008A819B810115110521F0F8019383828333
:1015400004C09093950280939402FE01329645C0A8
:10155000FE01E80FF91F61937193029799838883C5
:101560003CC08091920290919302892B41F480912A
:10157000660190916701909393028093920240914B
:101580006801509169014115510541F44DB75EB7AD
:101590008091640190916501481B590B2091920242
:1015A0003091930224173507B0F4CA01821B930BC4
:1015B0008617970780F0AB014E5F5F4F8417950742
:1015C00050F0420F531F5093930240939202F9013F
:1015D0006193719302C0E0E0F0E0CF01DF91CF9121
:1015E0001F910F910895CF93DF939C01009709F409
:1015F0008FC0EC0122971B821A8260919402709135
:1016000095026115710581F488819981820F931F7C
:1016100020919202309193022817390739F5D0931F
:101620009302C093920274C0DB0140E050E0AC171B
:10163000BD0708F1BB83AA83FE0121913191E20F1E
:10164000F31FAE17BF0779F48D919C911197280F66
:10165000391F2E5F3F4F3983288312968D919C91BD
:1016600013979B838A834115510571F4D09395029A
:10167000C09394024DC012968D919C911397AD0129
:10168000009711F0DC01D3CFDA011396DC93CE93EF
:101690001297FA0121913191E20FF31FCE17DF0764
:1016A00069F488819981280F391F2E5F3F4FFA0115
:1016B000318320838A819B8193838283E0E0F0E001
:1016C000DB0112968D919C911397009719F0BC0144
:1016D000FD01F6CFAB014E5F5F4FDB018D919C9119
:1016E000840F951F20919202309193022817390799
:1016F00079F4309729F4109295021092940202C066
:1017000013821282425050405093930240939202AF
:10171000DF91CF910895629FD001739FF001829F66
:10172000E00DF11D649FE00DF11D929FF00D839F70
:10173000F00D749FF00D659FF00D9927729FB00D0D
:10174000E11DF91F639FB00DE11DF91FBD01CF0120
:1017500011240895A1E21A2EAA1BBB1BFD010DC086
:10176000AA1FBB1FEE1FFF1FA217B307E407F50751
:1017700020F0A21BB30BE40BF50B661F771F881F2D
:10178000991F1A9469F760957095809590959B01C3
:10179000AC01BD01CF01089597FB092E05260ED09F
:1017A00057FD04D0D7DF0AD0001C38F4509540957F
:1017B000309521953F4F4F4F5F4F0895F6F7909525
:1017C0008095709561957F4F8F4F9F4F0895EE0FD5
:1017D000FF1F0590F491E02D099410E0CAECD0E0D1
:1017E00004C0FE010E94E90B2296CC3CD107C9F748
:0417F000F894FFCF9B
:1017F40030780030620054004600747275650066EB
:10180400616C7365004552524F523A20004D617429
:1018140072697850696E733A20436F6C756D6E20EF
:10182400726566726573682073697A65206F6620D5
:10183400256C203C2050574D2073697A65206F66D3
:101844002025640003000400050006003300FE01A7
:101854003300FE0180009602000000000000BC007E
:101864002B01900093009600A600B1000000000038
:10187400B102B702C808C808C808C808C8080000E8
:0E1884000000D40668078A06A6069606C4066B
:00000001FF
