:100000000C9462000C948A000C948A000C948A0070
:100010000C948A000C948A000C948A000C948A0038
:100020000C948A000C948A000C948A000C948A0028
:100030000C948A000C948A000C948A000C948A0018
:100040000C9484050C948A000C94BF010C94060255
:100050000C948A000C948A000C948A000C948A00F8
:100060000C948A000C948A000000000024002700F1
:100070002A0000000000250028002B0000000000DE
:1000800023002600290004040404040404040202DA
:100090000202020203030303030301020408102007
:1000A0004080010204081020010204081020000012
:1000B0000007000201000003040600000000000029
:1000C0000000430311241FBECFEFD8E0DEBFCDBF39
:1000D00011E0A0E0B1E0EAECF2E102C005900D927F
:1000E000A832B107D9F711E0A8E2B1E001C01D9232
:1000F000AB3DB107E1F710E0C4ECD0E004C02297BB
:10010000FE010E944B09C23CD107C9F70E94750548
:100110000C9463090C940000FB01DC0102C0019007
:100120000D9241505040D8F70895FB01DC01019039
:100130000D920020E1F70895FB019F01E894423001
:10014000C4F04532B4F44A3029F497FB1EF490957C
:1001500081959F4F642F77270E944F09805D8A33D6
:100160000CF0895D8193CB010097A1F716F45DE255
:1001700051931082C9010C94BD00DC01FC01672F72
:1001800071917723E1F7329704C07C916D9370836E
:100190006291AE17BF07C8F308952F923F924F9216
:1001A0005F926F927F928F929F92AF92BF92CF9207
:1001B000DF92EF92FF920F931F93DF93CF93CDB710
:1001C000DEB72E970FB6F894DEBF0FBECDBF0E94EC
:1001D000CC051B012C018091280190912901A0914F
:1001E0002A01B0912B01A2019101281B390B4A0B66
:1001F0005B0BDA01C901885E9340A040B04008F46F
:1002000071C082E1882E81E0982EAA24BB243E0191
:100210000894611C711C52C0802F61E00E94BC06D2
:100220008C2D61E00E94BC06C30160E071E00E9479
:100230002F05CE010796B3010E945F05CE010796F8
:10024000B5010E94E10462E071E00E94F204B7018E
:100250000E94E10464E071E00E94F204BC01C30169
:100260000E944805CE0107960E946F058CE291E03E
:10027000B3010E9416046CED75E080E090E00E94EE
:100280001506802F60E00E94BC068C2D60E00E9465
:10029000BC06C3010E9469050894E11CF11CED85B0
:1002A000FE8501911191FE87ED8717FFB5CF089468
:1002B000A11CB11C22E030E0820E931EF401C0802C
:1002C000D180D7FC07C02CE031E03E872D87EE249B
:1002D000FF24E5CF209228013092290140922A0183
:1002E00050922B012E960FB6F894DEBF0FBECDBFF5
:1002F000CF91DF911F910F91FF90EF90DF90CF9002
:10030000BF90AF909F908F907F906F905F904F9035
:100310003F902F9008950F931F93CF93DF938CE21C
:1003200091E040E052EC61E070E00E94360202E1B0
:1003300011E008C08C2F61E00E947D068C2F60E0E8
:100340000E94BC06F801C191D1918F01D7FFF2CF75
:100350000CE011E008C08C2F61E00E947D068C2F1C
:1003600060E00E94BC06F801C191D1918F01D7FFD6
:10037000F2CFDF91CF911F910F91089508951F92B1
:100380000F920FB60F9211242F933F934F938F9399
:100390009F93EF93FF938091C00082FD19C040911D
:1003A000C60080914A01282F30E02F5F3F4F2F7306
:1003B000307080914B0190E02817390759F0E09197
:1003C0004A01F0E0E45DFE4F42A320934A0102C0DF
:1003D0008091C600FF91EF919F918F914F913F9136
:1003E0002F910F900FBE0F901F90189580914A018A
:1003F00020914B0190E0805C9F4F821B91098F738D
:100400009070892B11F00E94BE0108951F920F92E7
:100410000FB60F9211242F938F939F93EF93FF9317
:1004200090914C0180914D01981731F48091C10059
:100430008F7D8093C10010C0E0914D01F0E0E25744
:10044000FE4F208180914D0190E001968F73907056
:1004500080934D012093C600FF91EF919F918F9162
:100460002F910F900FBE0F901F901895AF92BF92D3
:10047000DF92EF92FF920F931F93CF93DF93EC01E4
:100480007A018B01DD24403081EE580780E0680757
:1004900080E0780711F0DD24D39491E0A92EB12CEF
:1004A000E889F989DD2069F0C5010C8C02C0880F4C
:1004B000991F0A94E2F7808360E079E08DE390E091
:1004C00005C0108260E874E88EE190E0A801970111
:1004D0000E94270921503040404050405695479592
:1004E0003795279580E12030380720F0DD2011F086
:1004F000DD24D6CFEC85FD853083EE85FF85208316
:100500001D8EEA89FB89408121E030E0C901088C19
:1005100002C0880F991F0A94E2F7482B4083EA89AA
:10052000FB894081C901098C02C0880F991F0A9478
:10053000E2F7482B4083EA89FB894081C9010A8C94
:1005400002C0880F991F0A94E2F7482B4083EA897A
:10055000FB8980810B8C02C0220F331F0A94E2F7C3
:10056000209528232083DF91CF911F910F91FF9039
:10057000EF90DF90BF90AF900895FC01268D878D9E
:1005800030E0205C3F4F281B31092F733070C901C8
:100590000895FC01968D878D981719F42FEF3FEF82
:1005A00006C0878DE80FF11D82A1282F30E0C90118
:1005B0000895DC015E969C915E975F968C915F97A3
:1005C000981719F42FEF3FEF10C05F968C915F974B
:1005D000FD01E80FF11D92A15F968C915F978F5FEF
:1005E0008F735F968C93292F30E0C9010895DC0149
:1005F0005D968C915D97882339F05096ED91FC9132
:100600005197808186FFF9CF5D961C920895DC0199
:1006100090968C919097282F30E02F5F3F4F2F734B
:10062000307091968C91919790E028173907C9F313
:1006300090968C919097FD01E80FF11DEE59FF4FB8
:10064000608390962C9390975296ED91FC915397DE
:10065000208181E090E05B960C905B9702C0880F50
:10066000991F0A94E2F7282B208381E05D968C93F2
:100670005D975096ED91FC915197808180648083C5
:1006800081E090E0089510922F0110922E0188EEE3
:1006900093E0A0E0B0E08093300190933101A0930B
:1006A0003201B09333018CE191E090932D0180935E
:1006B0002C0110924D0180914D0180934C011092BC
:1006C0004B0180914B0180934A0185EC90E090931F
:1006D00039018093380184EC90E090933B01809342
:1006E0003A0180EC90E090933D0180933C0181ECD5
:1006F00090E090933F0180933E0182EC90E09093D4
:1007000041018093400186EC90E0909343018093F7
:10071000420184E08093440183E08093450187E0B7
:100720008093460185E08093470181E080934801F2
:100730000895CF92DF92EF92FF920F931F93CF9382
:10074000DF937C016B018A01C0E0D0E00FC0D601CD
:100750006D916D01D701ED91FC910190F081E02D3B
:10076000C7010995C80FD91F015010400115110587
:1007700071F7CE01DF91CF911F910F91FF90EF9014
:10078000DF90CF900895EF92FF920F931F938C010B
:10079000DC01ED91FC910190F081E02D6DE0099577
:1007A0007C01D801ED91FC910190F081E02DC80110
:1007B0006AE009959C012E0D3F1DC9011F910F9103
:1007C000FF90EF900895AF92BF92CF92DF92EF9299
:1007D000FF920F931F93CF93DF935C016B01EE2485
:1007E000FF24C0E0D0E010C0D501ED91FC91008164
:1007F0001181C601BE010E942A04682FC501F801BB
:100800000995E80EF91E2196F60184819581C81795
:10081000D90750F3C701DF91CF911F910F91FF903E
:10082000EF90DF90CF90BF90AF900895EF92FF923E
:100830000F931F937C010E94E3038C01C7010E9468
:10084000C3039C01200F311FC9011F910F91FF901D
:10085000EF900895FC01848195816817790748F429
:100860000190F081E02D309721F0E60FF71F808195
:10087000089580E008950F931F93CF93DF93EC01C9
:100880008B016F5F7F4F888199810E944508009797
:1008900011F480E005C0998388831B830A8381E07B
:1008A000DF91CF911F910F910895CF93DF93EC01CA
:1008B00088819981892B29F08A819B8186179707E6
:1008C00060F4CE010E943B04882341F08C819D811D
:1008D000892B19F4E881F981108281E0DF91CF91B1
:1008E0000895EF92FF920F931F93CF93DF93EC0144
:1008F0007B016C817D81E114F104C1F0411551054A
:1009000099F08A01060F171FB8010E945504882329
:1009100069F0888199812C813D81820F931FB701F5
:100920000E9495001D830C8381E001C080E0DF916F
:10093000CF911F910F91FF90EF900895EF92FF924A
:100940000F931F93DF93CF93CDB7DEB72C970FB6DE
:10095000F894DEBF0FBECDBF7C01CB018E010F5FCF
:100960001F4FB8014AE050E00E949C00F80101903E
:100970000020E9F73197E01BF10BC701B801AF0187
:100980000E9471042C960FB6F894DEBF0FBECDBF47
:10099000CF91DF911F910F91FF90EF900895CF932A
:1009A000DF93EC0188819981009711F00E94AD07D7
:1009B000198218821D821C821B821A82DF91CF91BC
:1009C00008950F931F93182F092F0E949E048823C8
:1009D00021F4812F902F0E94CF04812F902F1F91FF
:1009E0000F9108950F931F93182F092F611571050B
:1009F00061F0DB010D900020E9F71197A61BB70B02
:100A0000AD010E947104882321F4812F902F0E9450
:100A1000CF04812F902F1F910F910895EF92FF9295
:100A20000F931F93CF93DF93EC017B018A01BA01EF
:100A30000E945504882321F4CE010E94CF0407C0F0
:100A40001D830C8388819981B7010E949500CE0196
:100A5000DF91CF911F910F91FF90EF900895CF9369
:100A6000DF93EC01198218821B821A821D821C827C
:100A70006115710551F0DB010D900020E9F7119728
:100A8000A61BB70BAD010E940E05DF91CF91089513
:100A9000CF93DF93EC01FB018617970761F060812C
:100AA00071816115710529F0448155810E940E05FF
:100AB00002C00E94CF04CE01DF91CF910895FC01C6
:100AC0001182108213821282158214820E944805BC
:100AD0000895FC01808191810E94AD070895FC0179
:100AE000808191810E94AD070895CF93DF930E948A
:100AF000DA050E948B01C6EFD1E00E94CD0020975D
:100B0000E1F30E94F601F9CF1F920F920FB60F92F8
:100B100011242F933F938F939F93AF93BF93809113
:100B2000D2019091D301A091D401B091D50130911F
:100B3000D6010196A11DB11D232F2D5F2D3720F069
:100B40002D570196A11DB11D2093D6018093D2018E
:100B50009093D301A093D401B093D5018091CE019D
:100B60009091CF01A091D001B091D1010196A11D2A
:100B7000B11D8093CE019093CF01A093D001B0938B
:100B8000D101BF91AF919F918F913F912F910F9084
:100B90000FBE0F901F9018958FB7F8942091D20137
:100BA0003091D3014091D4015091D5018FBFB9014B
:100BB000CA010895789484B5826084BD84B581604B
:100BC00084BD85B5826085BD85B5816085BDEEE655
:100BD000F0E0808181608083E1E8F0E01082808134
:100BE00082608083808181608083E0E8F0E08081A2
:100BF00081608083E1EBF0E0808184608083E0EBC2
:100C0000F0E0808181608083EAE7F0E080818460A9
:100C10008083808182608083808181608083808105
:100C2000806880831092C1000895EF92FF920F9325
:100C30001F93CF93DF937B018C013FB7F894809192
:100C4000CE019091CF01A091D001B091D10126B5F4
:100C5000A89B05C02F3F19F00196A11DB11D3FBFF4
:100C6000BA2FA92F982F8827820F911DA11DB11D82
:100C700052E0880F991FAA1FBB1F5A95D1F7EC01AC
:100C800030C00E9426093FB7F8948091CE01909120
:100C9000CF01A091D001B091D10126B5A89B05C08C
:100CA0002F3F19F00196A11DB11D3FBFBA2FA92FEB
:100CB000982F8827820F911DA11DB11D32E0880F4A
:100CC000991FAA1FBB1F3A95D1F78C1B9D0B885EFD
:100CD0009340B8F20894E108F10801091109C851DC
:100CE000DC4FE114F1040105110559F6DF91CF91B4
:100CF0001F910F91FF90EF900895CF93DF93482FAE
:100D000050E0CA0186569F4FFC0134914A575F4F0D
:100D1000FA018491882369F190E0880F991FFC0102
:100D2000E859FF4FA591B491FC01EE58FF4FC591D2
:100D3000D491662351F42FB7F8948C91932F90950A
:100D400089238C93888189230BC0623061F42FB78B
:100D5000F8948C91932F909589238C938881832B81
:100D600088832FBF06C09FB7F8948C91832B8C93F8
:100D70009FBFDF91CF910895482F50E0CA0182555F
:100D80009F4FFC012491CA0186569F4FFC0194910C
:100D90004A575F4FFA013491332309F440C02223AC
:100DA00051F1233071F0243028F42130A1F02230A9
:100DB00011F514C02630B1F02730C1F02430D9F439
:100DC00004C0809180008F7703C0809180008F7D68
:100DD0008093800010C084B58F7702C084B58F7D6A
:100DE00084BD09C08091B0008F7703C08091B000AE
:100DF0008F7D8093B000E32FF0E0EE0FFF1FEE58E1
:100E0000FF4FA591B4912FB7F894662321F48C91EC
:100E10009095892302C08C91892B8C932FBF0895C4
:100E20000F931F93CF93DF93BC018230910510F491
:100E300062E070E0E091D901F091DA01A0E0B0E069
:100E400040E050E024C08081918186179707D0F060
:100E50008617970771F482819381109729F0139672
:100E60009C938E9312972CC09093DA018093D901B2
:100E700027C04115510519F08417950718F4EF01A3
:100E80008D01AC01DF01828193819C01F9013097D2
:100E9000D1F641155105F9F0CA01861B970B843034
:100EA000910580F48A819B810115110521F0F801DB
:100EB0009383828304C09093DA018093D901FE0169
:100EC000329645C0FE01E80FF91F619371930297B6
:100ED000998388833CC08091D7019091D801892B58
:100EE00041F480910801909109019093D801809379
:100EF000D70140910A0150910B014115510541F470
:100F00004DB75EB78091060190910701481B590BC0
:100F10002091D7013091D80124173507B0F4CA01C8
:100F2000821B930B8617970780F0AB014E5F5F4FD4
:100F30008417950750F0420F531F5093D8014093E8
:100F4000D701F9016193719302C0E0E0F0E0CF01B5
:100F5000DF91CF911F910F910895CF93DF939C0163
:100F6000009709F48FC0EC0122971B821A826091CE
:100F7000D9017091DA016115710581F48881998137
:100F8000820F931F2091D7013091D801281739077C
:100F900039F5D093D801C093D70174C0DB0140E08C
:100FA00050E0AC17BD0708F1BB83AA83FE01219175
:100FB0003191E20FF31FAE17BF0779F48D919C9129
:100FC0001197280F391F2E5F3F4F398328831296C0
:100FD0008D919C9113979B838A834115510571F4E0
:100FE000D093DA01C093D9014DC012968D919C9196
:100FF0001397AD01009711F0DC01D3CFDA011396FE
:10100000DC93CE931297FA0121913191E20FF31FF5
:10101000CE17DF0769F488819981280F391F2E5F69
:101020003F4FFA01318320838A819B81938382839E
:10103000E0E0F0E0DB0112968D919C911397009710
:1010400019F0BC01FD01F6CFAB014E5F5F4FDB0134
:101050008D919C91840F951F2091D7013091D801DB
:101060002817390779F4309729F41092DA01109291
:10107000D90102C013821282425050405093D801CD
:101080004093D701DF91CF9108956F927F928F9215
:101090009F92AF92BF92CF92DF92EF92FF920F9307
:1010A0001F93CF93DF938C01009729F4CB010E940B
:1010B00010078C01BBC08EEFE82E8FEFF82EE00EEC
:1010C000F11E4801860E971E8E149F0408F4ACC0D2
:1010D000D7014D915C91119746175707B8F04530ED
:1010E000510508F4A3C0CA0104978617970708F4AE
:1010F0009DC042505040461B570BF4014193519301
:101100006D937C93CF010E94AD0790C05B01A41A40
:10111000B50A3801640E751EA091D901B091DA01AB
:10112000CC24DD24E0E0F0E047C0A615B705A9F522
:10113000CD91DC911197CE0102968A159B0568F13D
:10114000CE018A199B09029612962C91129713963A
:101150003C91059758F0F40122833383CA19DB09C7
:10116000D183C083D7016D937C9309C04E5F5F4FDD
:101170004C0F5D1FF70151834083C901FC01C1146D
:10118000D10431F0D6011396FC93EE9312974EC022
:10119000F093DA01E093D90149C08D919C911197A8
:1011A000E817F90708F4FC016D0112968C9112976B
:1011B00013969C919C01D901109709F0B6CF8091AC
:1011C000D7019091D80186159705E9F4E617F7073E
:1011D000D0F420910A0130910B012115310541F421
:1011E0002DB73EB78091060190910701281B390B5E
:1011F00082169306C8F49092D8018092D701F70125
:101200007183608313C0CB010E941007EC0100972B
:1012100059F0D7014D915C91B8010E948C00C80132
:101220000E94AD078E0102C000E010E0C801DF910E
:10123000CF911F910F91FF90EF90DF90CF90BF90D3
:10124000AF909F908F907F906F9008950895A1E246
:101250001A2EAA1BBB1BFD010DC0AA1FBB1FEE1F30
:10126000FF1FA217B307E407F50720F0A21BB30B7B
:10127000E40BF50B661F771F881F991F1A9469F7F7
:1012800060957095809590959B01AC01BD01CF0153
:101290000895EE0FFF1F0590F491E02D0994AA1B0D
:1012A000BB1B51E107C0AA1FBB1FA617B70710F051
:1012B000A61BB70B881F991F5A95A9F78095909583
:0A12C000BC01CD010895F894FFCFA2
:1012CA0028002C0029008000DB0100000300040034
:1012DA00FFFF05000600FFFF000000000703990357
:0812EA00BD02D902C902F7029E
:00000001FF
