:100000000C9465000C948D000C948D000C948D0064
:100010000C948D000C948D000C948D000C948D002C
:100020000C948D000C94A5020C948D000C948D0002
:100030000C948D000C948D000C948D000C948D000C
:100040000C9466090C948D000C9469050C94B00511
:100050000C948D000C948D000C948D000C948D00EC
:100060000C948D000C948D000000000024002700EB
:100070002A0000000000250028002B0000000000DE
:1000800023002600290004040404040404040202DA
:100090000202020203030303030301020408102007
:1000A0004080010204081020010204081020000012
:1000B0000007000201000003040600000000000029
:1000C00000007701CF02ED06700111241FBECFEFB3
:1000D000D8E0DEBFCDBF11E0A0E0B1E0EAE6FAE192
:1000E00002C005900D92A835B107D9F712E0A8E536
:1000F000B1E001C01D92A235B107E1F710E0C8ECF4
:10010000D0E004C02297FE010E94240DC23CD1071A
:10011000C9F70E944D090C94280D0C940000FB01B6
:10012000DC0102C001900D9241505040D8F7089573
:10013000FB01DC0101900D920020E1F70895FA0126
:10014000CF93FF93EF93223044F1253234F5C22F41
:10015000E894CA3049F497FB3EF4909580957095E9
:1001600061957F4F8F4F9F4F2C2F33274427552763
:10017000FF93EF930E94E50CEF91FF91605D6A336E
:100180000CF0695D6193B901CA0160507040804014
:10019000904051F716F4CDE2C19310828F919F9158
:1001A000CF910C94D300DC01FC01672F7191772370
:1001B000E1F7329704C07C916D9370836291AE1722
:1001C000BF07C8F3089582E090E0089582E090E0D0
:1001D0000895DC011296ED91FC911397440F551F81
:1001E000460F571F440F551FE40FF51F8081918163
:1001F0000895660F771F660F771FFC0122813381F8
:10020000260F371FC9010895660F771F660F771FE6
:10021000FC0122813381260F371FC9010895FC019B
:1002200088E291E091838083CF010E94D4020895F7
:100230000F931F9381309105B9F56F5F7F4F09F0E0
:100240004CC084E691E062E070E046E051E00E943C
:1002500055058AE691E062E070E04AE051E00E94D4
:10026000550580E791E06AE671E044E651E000ED73
:1002700017E020E030E00E94AE0388E291E0909326
:100280008D0180938C012EE031E030938F0120931B
:100290008E01909391018093900186E191E090937B
:1002A00093018093920119C0892BB9F46F5F7F4F3E
:1002B000A1F480E991E00E940F018CE891E00E9496
:1002C0000F0180E791E00E9494038AE691E00E948A
:1002D000330584E691E00E9433051F910F91089544
:1002E00080E090E06FEF7FEF0E941801089581E0B9
:1002F00090E06FEF7FEF0E94180108950F931F9316
:100300008C0188E291E0F80191838083C8010E940A
:10031000D402C8010E9460091F910F910895EF92C5
:10032000FF920F931F93DF93CF93CDB7DEB72C9738
:100330000FB6F894DEBF0FBECDBF809158019091EB
:100340005901A0915A01B0915B010196A11DB11D07
:100350008093580190935901A0935A01B0935B0187
:100360000E94BC09AB01BC0180E791E00E94ED0254
:100370000E94AE0920915C0130915D0140915E01C7
:1003800050915F01621B730B840B950B615D77408D
:100390008040904008F460C07E010894E11CF11C8C
:1003A000C70160E071E00E9407098E01095F1F4FDD
:1003B000C801B7010E943709609158017091590135
:1003C00080915A0190915B012AE030E040E050E0DA
:1003D0000E94070DC801BA01A9010E94D508BC01FD
:1003E00083EA91E00E94C007C8010E944709C70143
:1003F0000E944109109258011092590110925A011D
:1004000010925B018091600190916101A091620165
:10041000B09163010196A11DB11D8093600190937D
:100420006101A0936201B093630180FD05C080E784
:1004300091E06CE871E004C080E791E060E971E070
:100440000E94E9020E94AE0960935C0170935D0115
:1004500080935E0190935F012C960FB6F894DEBFF7
:100460000FBECDBFCF91DF911F910F91FF90EF9005
:1004700008950F931F9300E711E0C8010E948303C2
:10048000C8016CE871E00E94E90283EA91E040E073
:1004900052EC61E070E00E94E0050E94AE096093BA
:1004A0005C0170935D0180935E0190935F011F91E9
:1004B0000F91089580919A0190919B01A0919C01C8
:1004C000B0919D010196A11DB11D80939A01909359
:1004D0009B01A0939C01B0939D0180919A01909102
:1004E0009B01A0919C01B0919D01209194013091BC
:1004F0009501409196015091970182179307A407A7
:10050000B50710F180919E018823F1F481E080937A
:100510009E0180919A0190919B01A0919C01B091C4
:100520009D01821B930BA40BB50B80939A019093B2
:100530009B01A0939C01B0939D01E0919801F091E3
:100540009901099510929E0108951F920F920FB67E
:100550000F9211242F933F934F935F936F937F9349
:100560008F939F93AF93BF93EF93FF9380919F01DE
:100570009091A0018093B2000E945A02FF91EF91E6
:10058000BF91AF919F918F917F916F915F914F91AB
:100590003F912F910F900FBE0F901F9018951092C2
:1005A000A2011092A1010895FC018AE391E09183D8
:1005B00080830895FC018AE391E09183808308950C
:1005C000FC018AE391E091838083CF010E9460095E
:1005D0000895FC01738F628F08956F927F928F92BE
:1005E0009F92AF92BF92CF92DF92EF92FF920F93C2
:1005F0001F93CF93DF934C01CB01BA01D4012D910E
:100600003D914D915C910E94E50CD62EC72EB82EDF
:10061000A92EF401E284F38404851585A8019701CD
:100620000E94E50C39016D2D7C2D8B2D9A2DA80192
:1006300097010E94E50C5B016C018401025F1F4F72
:10064000C0E0D0E00CC040E050E0C615D70511F482
:1006500041E050E0C801BE010E94C8042196C801D3
:100660000E94C404C817D90774F384010C5E1F4F9D
:10067000C0E0D0E033C0F401A28DB38DED91FC91C8
:1006800011970484F585E02DCD01B3010995FE0194
:10069000EE0FFF1FE80FF91F80819181880F991FCE
:1006A000880F991FD4011496ED91FC911597E80FCE
:1006B000F91F80819181A281B381A816B906CA066B
:1006C000DB0628F4C801BE0141E050E004C0C801C7
:1006D000BE0140E050E00E94C8042196C8010E947B
:1006E000C404C817D9073CF2DF91CF911F910F9135
:1006F000FF90EF90DF90CF90BF90AF909F908F9042
:100700007F906F9008950F931F938C010E9660E079
:1007100070E00E94F704C801449660E070E00E9417
:10072000F7041F910F910895CF93DF93EC018E8111
:100730009F81009711F00E945D0988859985009737
:1007400011F00E945D09CE0144960E943305CE014E
:100750000E960E943305DF91CF9108952F923F921C
:100760004F925F926F927F928F929F92AF92BF92C1
:10077000CF92DF92EF92FF920F931F93DF93CF936D
:1007800000D000D0CDB7DEB79C838B836B015A01BC
:1007900078018901CB010E94C404AA2797FDA09586
:1007A000BA2FBC01CD01A80197010E94C60CAB81F4
:1007B000BC816D937D938D939C931397FD01E2868D
:1007C000F386048715873E96FA83E983CF01B60145
:1007D0000E943B058B819C814496B5010E943B059C
:1007E000AB81BC815B961C921E925A9780E991E086
:1007F0000E946309EB81FC81958384832224332446
:10080000442455243201AB81BC8114968D909C9078
:100810001597820C931C00D000D01A968D919D9153
:100820000D90BC91A02DEDB7FEB781839283A38379
:10083000B483C301B20120E030E040E050E0E3E6E1
:10084000EE2EF12C012D112DAA24BB2465010E944E
:10085000D407D4016D937D938D939C931397E4E01B
:10086000F0E02E0E3F1E0894411C511C611C711CAF
:100870000F900F900F900F90F0E92F16F1E03F06C8
:1008800011F689819A810E94C404880F991F880FEC
:10089000991F0E946309AB81BC8117969C938E932C
:1008A000169789819A810E94C404880F991F880F26
:1008B000991F0E9463099C01EB81FC8191878087CD
:1008C000DF010680F781E02D1082118212821382EF
:1008D000FD0182859385A485B585F9018083918387
:1008E000A283B38341E0E42EF12C00E010E02CC0A1
:1008F000AB81BC8116962D913C911797200F311F2B
:100900001896ED91FC911997E00FF11FD290C290CB
:10091000B290A2903496D901AD92BD92CD92DC9264
:100920001397AB81BC811A962D913D914D915C91AD
:100930001D97A20EB31EC41ED51EA082B182C28214
:10094000D3820894E11CF11C89819A810E94C4041D
:100950000C5F1F4FE816F9065CF20F900F900F9096
:100960000F90CF91DF911F910F91FF90EF90DF904B
:10097000CF90BF90AF909F908F907F906F905F903F
:100980004F903F902F900895FC01848195810895A8
:10099000EF92FF920F931F93CF93DF938C01EB01A4
:1009A0007A01CC0FDD1FDC011296ED91FC911397BB
:1009B000EC0FFD1F80819181E816F90689F0ED9119
:1009C000FC91EC0FFD1F80816E2D0E945C0AD80106
:1009D0001296ED91FC911397EC0FFD1FF182E082CE
:1009E000DF91CF911F910F91FF90EF900895CF92DB
:1009F000DF92EF92FF920F931F93CF93DF937C01CF
:100A0000D62EC72EC0E0D0E01FC08E01000F111FF0
:100A1000D701ED91FC91E00FF11F808161E00E9410
:100A20001D0AD701ED91FC91E00FF11F80816D2D22
:100A30000E945C0AD7011296ED91FC911397E00F8A
:100A4000F11FD082C1822196F70184819581C81758
:100A5000D907DCF2DF91CF911F910F91FF90EF90BA
:100A6000DF90CF900895FC0182819381009711F06F
:100A70000E945D0908950F931F938C01FB018081F3
:100A80009181D80111969C938E93848195811596BE
:100A90009C938E931497880F991F0E946309F80105
:100AA000938382831F910F9108950F931F938C015D
:100AB000CB01F8015183408375836483880F991FAC
:100AC0000E946309F801938382831F910F91089517
:100AD00008951F920F920FB60F9211242F933F93F8
:100AE0004F938F939F93EF93FF938091C00082FD6C
:100AF00019C04091C6008091C101282F30E02F5FBE
:100B00003F4F2F7330708091C20190E02817390752
:100B100059F0E091C101F0E0ED55FE4F42A3209362
:100B2000C10102C08091C600FF91EF919F918F910A
:100B30004F913F912F910F900FBE0F901F901895DE
:100B40008091C1012091C20190E0805C9F4F821B87
:100B500091098F739070892B11F00E946805089598
:100B60001F920F920FB60F9211242F938F939F9382
:100B7000EF93FF939091C3018091C401981731F4D2
:100B80008091C1008F7D8093C10010C0E091C401AD
:100B9000F0E0EB5FFD4F20818091C40190E0019671
:100BA0008F7390708093C4012093C600FF91EF91E2
:100BB0009F918F912F910F900FBE0F901F901895BE
:100BC000AF92BF92DF92EF92FF920F931F93CF935A
:100BD000DF93EC017A018B01DD24403081EE580770
:100BE00080E0680780E0780711F0DD24D39491E07D
:100BF000A92EB12CE889F989DD2069F0C5010C8C9A
:100C000002C0880F991F0A94E2F7808360E079E0C0
:100C10008DE390E005C0108260E874E88EE190E01A
:100C2000A80197010E94E50C2150304040405040FF
:100C3000569547953795279580E12030380720F065
:100C4000DD2011F0DD24D6CFEC85FD853083EE85E7
:100C5000FF8520831D8EEA89FB89408121E030E0F9
:100C6000C901088C02C0880F991F0A94E2F7482B2B
:100C70004083EA89FB894081C901098C02C0880F41
:100C8000991F0A94E2F7482B4083EA89FB89408147
:100C9000C9010A8C02C0880F991F0A94E2F7482BF9
:100CA0004083EA89FB8980810B8C02C0220F331FAD
:100CB0000A94E2F7209528232083DF91CF911F919A
:100CC0000F91FF90EF90DF90BF90AF900895FC01DF
:100CD000268D878D30E0205C3F4F281B31092F7314
:100CE0003070C9010895FC01968D878D981719F40D
:100CF0002FEF3FEF06C0878DE80FF11D82A1282F4F
:100D000030E0C9010895DC015E969C915E975F9684
:100D10008C915F97981719F42FEF3FEF10C05F96F3
:100D20008C915F97FD01E80FF11D92A15F968C9168
:100D30005F978F5F8F735F968C93292F30E0C90187
:100D40000895DC015D968C915D97882339F050966B
:100D5000ED91FC915197808186FFF9CF5D961C92B1
:100D60000895DC0190968C919097282F30E02F5FAA
:100D70003F4F2F73307091968C91919790E0281788
:100D80003907C9F390968C919097FD01E80FF11DFA
:100D9000EE59FF4F608390962C9390975296ED9169
:100DA000FC915397208181E090E05B960C905B97DB
:100DB00002C0880F991F0A94E2F7282B208381E054
:100DC0005D968C935D975096ED91FC915197808143
:100DD0008064808381E090E008951092A6011092D3
:100DE000A50188EE93E0A0E0B0E08093A701909386
:100DF000A801A093A901B093AA018CE491E090937B
:100E0000A4018093A3011092C4018091C401809336
:100E1000C3011092C2018091C2018093C10185EC8F
:100E200090E09093B0018093AF0184EC90E09093B8
:100E3000B2018093B10180EC90E09093B401809373
:100E4000B30181EC90E09093B6018093B50182EC00
:100E500090E09093B8018093B70186EC90E0909376
:100E6000BA018093B90184E08093BB0183E0809351
:100E7000BC0187E08093BD0185E08093BE0181E0E5
:100E80008093BF010895CF92DF92EF92FF920F936C
:100E90001F93CF93DF937C016B018A01C0E0D0E008
:100EA0000FC0D6016D916D01D701ED91FC910190BC
:100EB000F081E02DC7010995C80FD91F01501040DE
:100EC0000115110571F7CE01DF91CF911F910F919F
:100ED000FF90EF90DF90CF900895EF92FF920F93E5
:100EE0001F938C01DC01ED91FC910190F081E02DCC
:100EF0006DE009957C01D801ED91FC910190F081A4
:100F0000E02DC8016AE009959C012E0D3F1DC90125
:100F10001F910F91FF90EF900895AF92BF92CF92E3
:100F2000DF92EF92FF920F931F93CF93DF935C01B9
:100F30006B01EE24FF24C0E0D0E010C0D501ED919C
:100F4000FC9100811181C601BE010E941D08682F1D
:100F5000C501F8010995E80EF91E2196F601848174
:100F60009581C817D90750F3C701DF91CF911F9121
:100F70000F91FF90EF90DF90CF90BF90AF900895CA
:100F8000EF92FF920F931F937C010E948D078C01BB
:100F9000C7010E946D079C01200F311FC9011F91DD
:100FA0000F91FF90EF9008952F923F924F925F9292
:100FB0006F927F928F929F92AF92BF92CF92DF9269
:100FC000EF92FF920F931F93DF93CF93CDB7DEB7CE
:100FD0003B014C0119012A016D897E898F89988D09
:100FE0006A197B098C099D09621A730A840A950A99
:100FF000A40193010E94C60CE218F3080409150924
:10100000A80197010E94070D2A0D3B1D4C1D5D1D77
:10101000B901CA01CF91DF911F910F91FF90EF901D
:10102000DF90CF90BF90AF909F908F907F906F9008
:101030005F904F903F902F900895FC01848195819F
:101040006817790748F40190F081E02D309721F07E
:10105000E60FF71F8081089580E008950F931F9396
:10106000CF93DF93EC018B016F5F7F4F8881998174
:101070000E94E50B009711F480E005C099838883F6
:101080001B830A8381E0DF91CF911F910F91089517
:10109000CF93DF93EC0188819981892B29F08A8194
:1010A0009B818617970760F4CE010E942E08882343
:1010B00041F08C819D81892B19F4E881F98110829E
:1010C00081E0DF91CF910895EF92FF920F931F93EC
:1010D000CF93DF93EC017B016C817D81E114F104FE
:1010E000C1F04115510599F08A01060F171FB8018B
:1010F0000E944808882369F0888199812C813D816C
:10110000820F931FB7010E9498001D830C8381E01A
:1011100001C080E0DF91CF911F910F91FF90EF9080
:101120000895EF92FF920F931F93DF93CF93CDB764
:10113000DEB72C970FB6F894DEBF0FBECDBF7C0193
:10114000CB01BA018E010F5F1F4FA8012AE030E0EA
:101150000E949F00F80101900020E9F73197E01B01
:10116000F10BC701B801AF010E9464082C960FB6BD
:10117000F894DEBF0FBECDBFCF91DF911F910F91CD
:10118000FF90EF900895CF93DF93EC0188819981D0
:10119000009711F00E944D0B198218821D821C824B
:1011A0001B821A82DF91CF9108950F931F93182FFE
:1011B000092F0E949108882321F4812F902F0E94EB
:1011C000C308812F902F1F910F910895EF92FF92E6
:1011D0000F931F93CF93DF93EC017B018A01BA0138
:1011E0000E944808882321F4CE010E94C30807C04A
:1011F0001D830C8388819981B7010E949800CE01DC
:10120000DF91CF911F910F91FF90EF900895CF93B1
:10121000DF93EC01198218821B821A821D821C82C4
:101220006115710551F0DB010D900020E9F7119770
:10123000A61BB70BAD010E94E608DF91CF91089580
:10124000CF93DF93EC01FB018617970761F0608174
:1012500071816115710529F0448155810E94E6086C
:1012600002C00E94C308CE01DF91CF910895FC0116
:101270001182108213821282158214820E94200928
:101280000895FC01808191810E944D0B0895FC011D
:10129000808191810E944D0B0895CF93DF930E942E
:1012A000E2090E943902C0EAD5E00E948F0120972E
:1012B000E1F30E94A005F9CF08950E944D0B089517
:1012C0000E944D0B08950E94B00A08951F920F923C
:1012D0000FB60F9211242F933F938F939F93AF9349
:1012E000BF938091490290914A02A0914B02B09124
:1012F0004C0230914D020196A11DB11D232F2D5F8F
:101300002D3720F02D570196A11DB11D20934D02C0
:101310008093490290934A02A0934B02B0934C02EF
:101320008091450290914602A0914702B0914802F7
:101330000196A11DB11D8093450290934602A09392
:101340004702B0934802BF91AF919F918F913F9117
:101350002F910F900FBE0F901F9018958FB7F89494
:101360002091490230914A0240914B0250914C0227
:101370008FBFB901CA0108959FB7F8942091450223
:1013800030914602409147025091480286B5A89B91
:1013900006C08F3F21F02F5F3F4F4F4F5F4F9FBFE2
:1013A000542F432F322F2227280F311D411D511D4D
:1013B00082E0220F331F441F551F8A95D1F7B901D0
:1013C000CA010895789484B5826084BD84B5816033
:1013D00084BD85B5826085BD85B5816085BDEEE63D
:1013E000F0E0808181608083E1E8F0E0108280811C
:1013F00082608083808181608083E0E8F0E080818A
:1014000081608083E1EBF0E0808184608083E0EBA9
:10141000F0E0808181608083EAE7F0E08081846091
:1014200080838081826080838081816080838081ED
:10143000806880831092C1000895CF93DF93482F76
:1014400050E0CA0186569F4FFC0134914A575F4FC6
:10145000FA018491882369F190E0880F991FFC01BB
:10146000E859FF4FA591B491FC01EE58FF4FC5918B
:10147000D491662351F42FB7F8948C91932F9095C3
:1014800089238C93888189230BC0623061F42FB744
:10149000F8948C91932F909589238C938881832B3A
:1014A00088832FBF06C09FB7F8948C91832B8C93B1
:1014B0009FBFDF91CF910895482F50E0CA01825518
:1014C0009F4FFC012491CA0186569F4FFC019491C5
:1014D0004A575F4FFA013491332309F440C0222365
:1014E00051F1233071F0243028F42130A1F0223062
:1014F00011F514C02630B1F02730C1F02430D9F4F2
:1015000004C0809180008F7703C0809180008F7D20
:101510008093800010C084B58F7702C084B58F7D22
:1015200084BD09C08091B0008F7703C08091B00066
:101530008F7D8093B000E32FF0E0EE0FFF1FEE5899
:10154000FF4FA591B4912FB7F894662321F48C91A5
:101550009095892302C08C91892B8C932FBF08957D
:101560000F931F93CF93DF93BC018230910510F44A
:1015700062E070E0E0915002F0915102A0E0B0E032
:1015800040E050E024C08081918186179707D0F019
:101590008617970771F482819381109729F013962B
:1015A0009C938E9312972CC090935102809350027B
:1015B00027C04115510519F08417950718F4EF015C
:1015C0008D01AC01DF01828193819C01F90130978B
:1015D000D1F641155105F9F0CA01861B970B8430ED
:1015E000910580F48A819B810115110521F0F80194
:1015F0009383828304C09093510280935002FE0132
:10160000329645C0FE01E80FF91F6193719302976E
:10161000998388833CC080914E0290914F02892B20
:1016200041F4809120019091210190934F02809389
:101630004E0240912201509123014115510541F480
:101640004DB75EB780911E0190911F01481B590B49
:1016500020914E0230914F0224173507B0F4CA0191
:10166000821B930B8617970780F0AB014E5F5F4F8D
:101670008417950750F0420F531F50934F02409329
:101680004E02F9016193719302C0E0E0F0E0CF01F6
:10169000DF91CF911F910F910895CF93DF939C011C
:1016A000009709F48FC0EC0122971B821A82609187
:1016B0005002709151026115710581F48881998100
:1016C000820F931F20914E0230914F022817390745
:1016D00039F5D0934F02C0934E0274C0DB0140E055
:1016E00050E0AC17BD0708F1BB83AA83FE0121912E
:1016F0003191E20FF31FAE17BF0779F48D919C91E2
:101700001197280F391F2E5F3F4F39832883129678
:101710008D919C9113979B838A834115510571F498
:10172000D0935102C09350024DC012968D919C915E
:101730001397AD01009711F0DC01D3CFDA011396B6
:10174000DC93CE931297FA0121913191E20FF31FAE
:10175000CE17DF0769F488819981280F391F2E5F22
:101760003F4FFA01318320838A819B819383828357
:10177000E0E0F0E0DB0112968D919C9113970097C9
:1017800019F0BC01FD01F6CFAB014E5F5F4FDB01ED
:101790008D919C91840F951F20914E0230914F02A4
:1017A0002817390779F4309729F4109251021092D2
:1017B000500202C0138212824250504050934F0296
:1017C00040934E02DF91CF9108956F927F928F9256
:1017D0009F92AF92BF92CF92DF92EF92FF920F93C0
:1017E0001F93CF93DF938C01009729F4CB010E94C4
:1017F000B00A8C01BBC08EEFE82E8FEFF82EE00E02
:10180000F11E4801860E971E8E149F0408F4ACC08A
:10181000D7014D915C91119746175707B8F04530A5
:10182000510508F4A3C0CA0104978617970708F466
:101830009DC042505040461B570BF40141935193B9
:101840006D937C93CF010E944D0B90C05B01A41A55
:10185000B50A3801640E751EA0915002B091510274
:10186000CC24DD24E0E0F0E047C0A615B705A9F5DB
:10187000CD91DC911197CE0102968A159B0568F1F6
:10188000CE018A199B09029612962C9112971396F3
:101890003C91059758F0F40122833383CA19DB0980
:1018A000D183C083D7016D937C9309C04E5F5F4F96
:1018B0004C0F5D1FF70151834083C901FC01C11426
:1018C000D10431F0D6011396FC93EE9312974EC0DB
:1018D000F0935102E093500249C08D919C91119771
:1018E000E817F90708F4FC016D0112968C91129724
:1018F00013969C919C01D901109709F0B6CF809165
:101900004E0290914F0286159705E9F4E617F70706
:10191000D0F420912201309123012115310541F4A9
:101920002DB73EB780911E0190911F01281B390BE6
:1019300082169306C8F490924F0280924E02F701ED
:101940007183608313C0CB010E94B00AEC01009741
:1019500059F0D7014D915C91B8010E948F00C801E8
:101960000E944D0B8E0102C000E010E0C801DF9123
:10197000CF911F910F91FF90EF90DF90CF90BF908C
:10198000AF909F908F907F906F900895629FD0014D
:10199000739FF001829FE00DF11D649FE00DF11D2A
:1019A000929FF00D839FF00D749FF00D659FF00DD9
:1019B0009927729FB00DE11DF91F639FB00DE11DC6
:1019C000F91FBD01CF0111240895A1E21A2EAA1B0F
:1019D000BB1BFD010DC0AA1FBB1FEE1FFF1FA217DF
:1019E000B307E407F50720F0A21BB30BE40BF50BDC
:1019F000661F771F881F991F1A9469F76095709565
:101A0000809590959B01AC01BD01CF01089597FB96
:101A1000092E05260ED057FD04D0D7DF0AD0001CB2
:101A200038F450954095309521953F4F4F4F5F4F7B
:101A30000895F6F790958095709561957F4F8F4F3B
:101A40009F4F0895EE0FFF1F0590F491E02D09942C
:101A500010E0C8ECD0E004C0FE010E94240D2296E4
:0A1A6000CA3CD107C9F7F894FFCF84
:101A6A006176673A200003000400050006000500BD
:101A7A006300050063006300050063000500800041
:101A8A0052020000000000000F017E01E300E600A0
:101A9A00E900F900040100000000DA02E0025C0932
:101AAA005C095C095C095C0900000000B106430797
:081ABA00670683067306A1060E
:040000050080015C1A
:00000001FF
